:02000002D0002C
:1040000000400D00E48E0D00000006000C000501CC
:084010000401BD0B00000000DB
:04401800047E0D0015
:10401C0009480A49884208B505D0094A824202D0AB
:10402C00121A03F0F1FD0748074A0021121A03F097
:10403C0013FE014808BD00BF6CE10320448A0D004B
:10404C00E4E50320E4E50320F0E7032070B5074E18
:10405C00074C03F0C9F8A41BA4080025A54200D105
:10406C0070BD56F8043B98470135F7E70C8A0D00F4
:10407C00408A0D0000F028B808B500F035F8BDE80E
:10408C00084003F073B801F091BC01F08FBC01F053
:10409C0095BC000008B5034A00210C2001F0E2FB9E
:1040AC00FEE700BF5D540D000078B0FA80F04009C7
:1040BC00704701230370704710B50446006808B1BF
:1040CC0001F07CFC204610BD08B503F093F94FF4C9
:1040DC00165103F083F9012003F007F800F0FCF906
:1040EC00BDE8084000F096BB00F004BA38B50A4CA5
:1040FC000A4BA360002503202560A580A57101F063
:10410C00C1FB0749074A204603F03EFC2946012023
:10411C00BDE8384001F0C6BBE8E503200000FFFF16
:10412C00C5400D00E4E5032003681847012A03D0BD
:10413C00022A03D0002070470160FBE70B68036084
:10414C00F8E7000008B50F480F4D00F0F3F92C46C6
:10415C0000264FF47A7002F0BFFFAB6801333B2BA3
:10416C00AB60C2BF6B680133C5E9013663683B2B9A
:10417C00C2BF23680133C4E9003623683B2BE8DD5A
:10418C002660E6E7E5410D00F4E5032010B50123B8
:10419C0003748368044643B1C06898470123637471
:1041AC000020BDE8104001F01DBA00680028F5D0D1
:1041BC0083680BB903F0F3FBC368EEE70EB403B5E9
:1041CC0003AB002153F8042B019302F03CFF02B027
:1041DC005DF804EB03B0704707B5054A05499368D1
:1041EC000093D2E90023FFF7E9FF03B05DF804FB6D
:1041FC00F4E50320187E0D0010B58368044613B156
:10420C00032201469847204610BD38B50568044680
:10421C0035B12846FFF7F0FF1021284603F0B9FB13
:10422C0020461421BDE8384003F0B3BB10B5036839
:10423C0004469BB1586801F09DF978B923685A7C03
:10424C0012B9586801F09EF92368586801F0A2F978
:10425C0020680023236008B1FFF7D7FF206808B15E
:10426C00FFF7D3FF204610BD2DE9F043074685B07C
:10427C008846142029491646994603F08CFB0446BF
:10428C0030B10022C0E90022C0E90222027442745B
:10429C003C60002C38D02149102003F07CFB0546F3
:1042AC00A0B196E8030002AB83E8030095E8030095
:1042BC0086E8030093E803000022B368AB6085E84E
:1042CC000300F368B260EA68F260EB602668256070
:1042DC0036B13046FFF790FF1021304603F059FB02
:1042EC003868036883B10C9B4A46CDE9000341460C
:1042FC000B4B043001F036F930B93B681B7C4BB9E1
:10430C00012001F09DF8F8E7386800233B6008B104
:10431C00FFF77BFF384605B0BDE8F08314880D002D
:10432C0099410D001FB50E4A9A4216D10388ADF87B
:10433C000430B0F80330ADF80830C388ADF80C3059
:10434C0001A803F041FC074C206002A803F03CFCE0
:10435C00606003A803F038FCA06004B010BD00BF7F
:10436C00217E0D00F4E503207047000010B586B0E7
:10437C000C4B02930C4B0D4C05930D4B04934FF4CB
:10438C00406302AA0B49009320460223FFF76CFFFF
:10439C0002A8FFF731FF084A0849204603F0F4FA57
:1043AC0006B010BD51410D0035410D0000E6032053
:1043BC0039410D00467E0D00E4E5032039420D0025
:1043CC002DE9F04F91B003A800F01EF9039901A854
:1043DC005C3102F040F9049C7CB16368013B636082
:1043EC005BB9236820469B689847A368013BA36090
:1043FC001BB923682046DB689847DFF880800027CC
:10440C0040F6C41403AD4FF0000A7FB3122003F042
:10441C0041FAA04206464FF01300D4BF4FF00009FA
:10442C004FF0010903F036FAA042D4BF4FF0000B55
:10443C004FF0010BA6420AF1010601DCA04217DD88
:10444C00BAF1090F05F1050512D005F8059C05F820
:10445C0004BC02F0CFFF5B464A464146FFF7AEFE76
:10446C004FF4FA70B24602F037FECEE70127C9E7E7
:10447C0006EB860103A800F0D3F8C3E7527E0D00CB
:10448C0010B586B00C4B02930C4B0D4C05930D4B99
:10449C0004934FF4406302AA0B4900932046022375
:1044AC00FFF7E2FE02A8FFF7A7FE084A08492046DC
:1044BC0003F06AFA06B010BDCD430D0035410D0076
:1044CC0004E6032039410D00597E0D00E4E503207C
:1044DC0039420D007047000008B505483C22022106
:1044EC0000F0DCFCBDE80840014800F0EFBB00BF69
:1044FC000CE6032008B50D4800F0E8FB0B48022140
:10450C0000F04DFF0948012100F04EFF0022074842
:10451C00114600F041FF064B1B680BB1034898474E
:10452C00BDE80840014800F049BC00BF0CE6032080
:10453C0008E60320014B1860704700BF08E6032013
:10454C0010B52421044603F024FA204610BD0000C7
:10455C0010B5064C0421204600F0A2FB2046044A6C
:10456C000449BDE8104003F00FBA00BF0CE603206D
:10457C00E4E50320E1440D00704710B504466830B3
:10458C0002F097F804F14C0002F093F804F14400A7
:10459C0002F08FF804F1280002F08BF804F12000EF
:1045AC00BDE8104002F085B8064B994210B500F1F9
:1045BC000C0405D0084603F0F5F9002808BF0024C8
:1045CC00204610BDB07F0D0010B57021044603F0DD
:1045DC00E0F9204610BDFFF75ABD38B544680546D2
:1045EC007CB16368013B63605BB9236820469B68C0
:1045FC009847A368013BA3601BB923682046DB687E
:10460C009847284638BD0000044B1A6802605B6866
:10461C00436013B15A6801325A60704730E6032088
:10462C0010B4054B1C680A460023014604F15C00DB
:10463C005DF8044B01F066BE30E60320F0B516467B
:10464C0091B00022C0E9002204460D460BAF19467A
:10465C0006A801F0C7FD1699384601F0C3FD337862
:10466C008DF81430189B0293179B2046CDE90073EC
:10467C0005AA06AB294602F053FA204611B0F0BD4C
:10468C00F0B5164691B00022C0E9002204460D4652
:10469C000BAF194606A801F0A5FD1699384601F096
:1046AC00BBFC33788DF81430189B0293179B204673
:1046BC00CDE9007305AA06AB294602F031FA204673
:1046CC0011B0F0BDF0B5334D8BB02946044601F066
:1046DC0089FD314A314B0293CDE90052042605AADB
:1046EC002F498DF8146004F11400FFF7A7FF2D4A31
:1046FC002D4B0293CDE900528DF8146005AA04F1FC
:10470C0024062A4904F11C00FFF798FF284930467B
:10471C0001F068FD0227314605A800258DF81070C0
:10472C0001F07AFC05AB04AA0093CDE90155214BAD
:10473C00214904F13800FFF7A3FF314605A88DF895
:10474C00107001F069FC05AB04AA009304F1480653
:10475C001A4B1B49CDE9015504F14000FFF790FFBE
:10476C001849304601F03EFD1023314605A88DF85E
:10477C00103001F051FC05AB0093CDE90155124B03
:10478C00124904AA04F15C00FFF77AFF20460BB033
:10479C00F0BD00BF687E0D0031430D00217E0D0081
:1047AC00FB860D0075430D008D7E0D00B27E0D0055
:1047BC00B77E0D00DC7E0D00017F0D000C7F0D001F
:1047CC00317F0D00367F0D005B7F0D00807F0D006B
:1047DC0030B589B0044603A8154601F01DFC03A8AA
:1047EC0001F060FC70B903A801F07BFC0095ADF8FA
:1047FC000A0002230DF10A020321204601F0FEFCFF
:10480C0009B030BD03A801F071FC009502461023DD
:10481C000721F2E710B58EB0334C01F07BFE01F0AE
:10482C00C7FE01F077FE22680146143205A802F09B
:10483C0099FA05A801F03DFF01F06CFE22680146D3
:10484C001C3205A802F08EFA05A801F032FF01F027
:10485C0061FE226801465C3205A802F083FA05A8C5
:10486C0001F027FF01F056FE22680146383205A8F8
:10487C0002F078FA05A801F01CFF01F04BFE22684B
:10488C000146403205A802F06DFA05A801F011FFAF
:10489C0005A801F0BEFC154905A801F0D3FC216860
:1048AC00684601F0B9FB0022694605A8FFF790FFA6
:1048BC0021686846483101F0AFFB0022694605A823
:1048CC00FFF786FF21686846243101F0A5FB694695
:1048DC00002205A8FFF77CFF01F01CFE002205A9B1
:1048EC0001F086FE0EB010BD30E60320887F0D006F
:1048FC0070B50D4D002370202B60FFF7C4FB041E18
:10490C0004F10C0607D00123C4E90133074B2360E3
:10491C003046FFF7D7FEC5E90064054A0549024851
:10492C00BDE8704003F030B830E603209C7F0D00EA
:10493C00E4E50320E7450D00F0B5457EBDF81440D5
:10494C00022D67D0032D00F09780012D6AD10589C7
:10495C00D2432A4412B2002A5BDBB0F908509542CC
:10496C0057DD0029BEBF5B181BB20021B0F90A004D
:10497C00CD188542C4BF431A1BB2002B49DDC1F3CD
:10498C00C400DFF81CC102EBC01211F00701DBB24E
:10499C000CEB02001AD0C1F108053F4EEDB2AB4250
:1049AC00775D3FBFA5EB030EFF2646FA0EF63740A8
:1049BC001CF80260012C0CBF3E43BE43AB420CF80A
:1049CC00026026D308390B44DBB28030072B17D991
:1049DC00012C0CBFFF25002500F180011A46083A76
:1049EC00D2B2072A01F8805C01F18001F7D8A3F15B
:1049FC000802C2F3C402013200EBC21003F0070339
:104A0C003BB1264AD25C0378012C0CBF1343934371
:104A1C000370F0BD4589D2432A44CD180189491B46
:104A2C0012B209B2002AF4DBB0F90A509542F0DD5B
:104A3C000029BEBF5B181BB20021B0F90870CE185C
:104A4C00BE42C4BF6B1A1BB2002BE2DDD010802516
:104A5C0010FB05111248084402F0070101228A409C
:104A6C00012CD2B203440CD18342D2D010F8014BAA
:104A7C00144300F8014CF7E7CD184189491B09B2E2
:104A8C0069E7D243D2B28342C3D010F8014B144031
:104A9C0000F8014CF7E700BF74E103206CE1032040
:104AAC007CE10320F0B5457EBDF81440022D34D0D6
:104ABC00032D00F09980012D37D1D5180289521B96
:104ACC0012B20029C0F28F80B0F90A508D4240F327
:104ADC008A80002ABEBF9B181BB20022B0F9087056
:104AEC00D618BE42C4BFAB1A1BB2002B7BDDC8105C
:104AFC00802510FB05224448104401F007020121D7
:104B0C009140012CC9B2034473D198426BD010F878
:104B1C00014B0C4300F8014CF7E70589C9432944C4
:104B2C00D5184289521B09B212B200295BDBB0F9CD
:104B3C0008508D4257DD002ABEBF9B181BB20022C5
:104B4C00B0F90A00D5188542C4BF831A1BB2002BDA
:104B5C0049DDC2F3C400DFF8B0C001EBC01112F0A4
:104B6C000702DBB20CEB01001AD0C2F10805274E8C
:104B7C00EDB2AB42775D3FBFA5EB030EFF2646FAC5
:104B8C000EF637401CF80160012C0CBF3E43BE43AF
:104B9C00AB420CF8016026D3083A1344DBB28030E8
:104BAC00072B17D9012C0CBFFF25002500F1800124
:104BBC001A46083AD2B2072A01F8805C01F180014A
:104BCC00F7D8A3F10802C2F3C402013200EBC21001
:104BDC0003F007033BB10E4AD25C0378012C0CBFE7
:104BEC00134393430370F0BD4589C943294409B26B
:104BFC0067E7C943C9B29842F5D010F8014B0C4095
:104C0C0000F8014CF7E700BF7CE1032074E10320BE
:104C1C006CE10320F8B50D1E064614461F462DDB2D
:104C2C0000F0C7FBA84229DD002C27DB304600F042
:104C3C00C3FBA04222DD304600F0B9FB02281ED097
:104C4C00032825D0012804D13289E44322442C4680
:104C5C0015B2002C2146B8BFE11DC910802311FBF1
:104C6C0003550E49012204F007044B5702FA04F4D1
:104C7C0064B297420CBF2343A3434B55F8BD318913
:104C8C0072890139E4434D1B14442DB224B2E0E780
:104C9C007389013B5B1B25461CB2DAE77CE10320E0
:104CAC0038B5402204460D46802100F0A7FA064B89
:104CBC002360FF2384F8213063774FF6FF73E3837F
:104CCC0084F82050204638BDC07F0D0002484FF4B8
:104CDC008062002102F0C0BF7CE1032013B50B4CB5
:104CEC002178BFF35B8F11F001010BD120460191AC
:104CFC00FFF7DAF9019928B1054800F0CBFE204600
:104D0C00FFF7D7F9024802B010BD00BF38E6032008
:104D1C003CE6032007B590F8223043B10191FFF730
:104D2C00DDFF019903B05DF804EB00F063BF0B46A7
:104D3C00817F407F012203B05DF804EB02F0C1BD1E
:104D4C0038B590F91D30013304460D461DD090F94D
:104D5C002100012180B202F084FD94F91F00002192
:104D6C0080B202F07EFD94F92100002180B202F0A5
:104D7C0078FD29462046FFF7CDFF94F9210001214B
:104D8C00BDE8384080B202F06CBD02F0D5FD94F95C
:104D9C001B1002F01FFC02F0CFFD036800219B6882
:104DAC00984702F0C9FD036829469B68984702F0B2
:104DBC00C3FDBDE8384002F014BC0000F8B5212159
:104DCC000446FFF7BDFF00212046FFF7B9FF7F2106
:104DDC002046FFF7B5FF22212046FFF7B1FF002147
:104DEC002046FFF7ADFF07212046FFF7A9FF94F9F6
:104DFC001D30294F01332AD094F92100012180B2B2
:104E0C0002F02FFD94F91F00012180B202F029FD60
:104E1C0094F92100002180B202F023FD012000F062
:104E2C0017FB4FF48065013D17F8011B2046ADB20E
:104E3C00FFF770FF002DF6D1012000F009FB94F96B
:104E4C0021000121BDE8F84080B202F00ABD102615
:104E5C0002F072FD94F91B1002F0BCFB02F06CFD29
:104E6C000368A6F110059B684021ADB2984702F08B
:104E7C0063FD0368795D9B680135ADB29847AE421E
:104E8C00F5D102F059FD02F0ACFB06F110039EB215
:104E9C00B6F5826FDCD1F8BD7CE1032038B590F912
:104EAC001D300177013304460D46C27600F0C980EF
:104EBC0090F91F00012180B202F0C2FC94F921008C
:104ECC00012180B202F0BCFC94F82230002B00F0DF
:104EDC00A68094F92100012180B202F0C2FCFFF7F8
:104EEC00FDFE012100F0F1FDFFF7F8FE102100F0AE
:104EFC005BFEFFF7F3FE002100F0FAFDFFF7EEFE7C
:104F0C0000F0D2FD94F92000012180B202F098FC4F
:104F1C0094F92000012180B202F0A3FC012002F0E0
:104F2C00DBF894F92000002180B202F09AFC0A20F0
:104F3C0002F0D2F894F92000012180B202F091FC29
:104F4C002046AE21FFF7FCFE2046D521FFF7F8FEE8
:104F5C0020468021FFF7F4FE2046A821FFF7F0FE43
:104F6C0020463F21FFF7ECFE2046D321FFF7E8FE59
:104F7C0020460021FFF7E4FE20464021FFF7E0FE2B
:104F8C008D212046FFF7DCFE012D0CBF10211421D2
:104F9C002046FFF7D5FE20462021FFF7D1FE204604
:104FAC000021FFF7CDFE2046A121FFF7C9FE2046C8
:104FBC00C821FFF7C5FE2046DA21FFF7C1FE2046C7
:104FCC001221FFF7BDFE81212046FFF7B9FE012D0E
:104FDC000CBF9F21CF212046FFF7B2FED9212046DE
:104FEC00FFF7AEFE012D0CBF2221F1212046FFF769
:104FFC00A7FE2046DB21FFF7A3FE20464021FFF74A
:10500C009FFE2046A421FFF79BFE2046A621FFF71A
:10501C0097FE2046AF21BDE83840FFF791BE94F9CA
:10502C001D00012180B202F00BFC94F91E0001213D
:10503C0080B202F005FC94F82230002B3FF462AFF2
:10504C0047E702F079FC02F0BBFA5BE72DE9F04F81
:10505C0085B01F46BDF93880BDF83C30A8EB02097D
:10506C00A7EB010AB9F1000FB8BFC9F10009BAF1F9
:10507C00000FB8BFCAF1000AD14583460C4615464D
:10508C0004DD3A462C4647460D469046BC4205DDAB
:10509C002A464546904622463C4617463E1BB2B22F
:1050AC000092A8EB0502002AB8BF52420192C6F347
:1050BC00C03202FA86F64545B4BF01224FF0FF32EA
:1050CC0076100292BC421CDCDBF800200393D14525
:1050DC00D2F81080C7BF294622462A462146584698
:1050EC00C047019A039BB61AB1B236B2002E05DA4C
:1050FC00029A1544009A56182DB236B2013424B2D5
:10510C00E0E705B0BDE8F08F2DE9F347BDF82C8042
:10511C000768BDF92890CDF800800446FF69164653
:10512C008A461D46B8472368CDF8008009F1FF3246
:10513C003244DF6951462B46204612B2B8472368E9
:10514C00CDF800809F6932464B4651462046B84701
:10515C006B1E03EB0A012368CDF828809D6932464B
:10516C004B4609B22046AC4602B0BDE8F04760475A
:10517C0037B5013B13440468BDF8185001951BB2B8
:10518C00009364690B46A04703B030BD37B5BDF83A
:10519C0018500468CDE90025013B0B4464691BB22F
:1051AC00A04703B030BD2DE9F347BDF92890BDF8F9
:1051BC002C80054692460C46CE18B4420BDA2B686E
:1051CC00CDF800809F6921464B4652462846013453
:1051DC00B84724B2F1E702B0BDE8F08713B5026816
:1051EC000191B0F90E100091546AB0F90C30002204
:1051FC001146A04702B010BD7047000030B5428187
:10520C00C2814FF0FF320024054D426101224460FF
:10521C0005600181818104610283827630BD00BF0B
:10522C00F4840D002DE9F04F2DED028B8BB006466A
:10523C000391BDF858100591BDF85C100691B0F9BA
:10524C000C1003989DF86050814251DDB6F90E1098
:10525C0091424DDD062111FB0504002C48DD02EBCB
:10526C00C504002C44DD03EB8303099393B207912F
:10527C0000240493052C1CBF2D4B099A049F16BFC8
:10528C001B1900239B5C0293039AABB2089304FB9B
:10529C0005F313FA82F31BB204EB020A08EE103A80
:1052AC004FF000080FFA85F90FFA8AFA029BDB0718
:1052BC002FD5012D336820D1049AD3F810B0059B5B
:1052CC00424412B251463046D847029B5B080293C7
:1052DC00089B08F101081F44B8F1080FBFB2E5D1D3
:1052EC00079B013B013413F0FF0364B20793C1D158
:1052FC000BB0BDEC028BBDE8F08F059ACDE90092A6
:10530C0018EE101AD3F824B03AB24B463046D847B0
:10531C00DBE7DDE905239342D7D0012D336805D1B6
:10532C00049AD3F810B0069B4244CAE7069AE5E704
:10533C00F07F0D0030B50A2985B0044607D1027EF6
:10534C00638A03EBC20363820023238221E00D29CD
:10535C001FD0037E0293C38A0193838A0093B0F912
:10536C0012200B46B0F91010FFF75CFF217E238A48
:10537C0001EB410003EB4003A07E1BB20A462382E3
:10538C0038B1B4F90C006FF0050505FB01018B4237
:10539C00D6DC012005B030BD018242827047012964
:1053AC0038BF012101767047C18281827047407EEF
:1053BC007047B0F90C007047B0F90E007047000050
:1053CC0008B5024B1B689B68019308BD680203007B
:1053DC0008B5024B1B68DB68019308BD680203002B
:1053EC0008B5024B1B685B68019308BD2C020300D7
:1053FC0008B5024B1B689B68019308BD2C02030087
:10540C0008B5024B1B68DB68019308BD2C02030036
:10541C0008B5024B1B681B69019308BD2C020300E5
:10542C0008B5024B1B681B6B019308BD2C020300D3
:10543C0008B5024B1B685B68019308BD180203009A
:10544C0008B5024B1B689B68019308BD180203004A
:10545C0008B5024B1B68DB68019308BD18020300FA
:10546C0008B5024B1B685B69019308BD1802030069
:10547C0008B5024B1B689B68019308BD78020300BA
:10548C0008B5024B1B681B6D019308BD7802030025
:10549C0008B5024B1B689B6D019308BD7802030095
:1054AC0008B5024B1B681B6E019308BD7802030004
:1054BC0008B5034B1B68D3F89830019308BD000066
:1054CC007802030008B5034B1B68D3F8A83001938E
:1054DC0008BD00007802030008B5034B1B68D3F825
:1054EC00B430019308BD00007802030008B5034BEB
:1054FC001B68D3F8D830019308BD00007802030074
:10550C0008B5034B1B68D3F8DC30019308BD0000D1
:10551C007802030008B5034B1B68D3F8EC300193F9
:10552C0008BD00007802030008B5034B1B68D3F8D4
:10553C00F030019308BD00007802030008B5034B5E
:10554C001B68D3F80031019308BD000078020300FA
:10555C0008B5034B1B68D3F80431019308BD000058
:10556C007802030008B5024B1B685B68019308BD09
:10557C004802030008B5024B1B689B68019308BDE9
:10558C004802030008B5024B1B681B69019308BD58
:10559C004802030008B5024B1B685B69019308BD08
:1055AC004802030008B5024B1B685B6C019308BDF5
:1055BC004802030008B5024B1B689B6C019308BDA5
:1055CC004802030008B5024B1B68DB6C019308BD55
:1055DC004802030008B5024B1B685B6D019308BDC4
:1055EC004802030008B5024B1B68DB6E019308BD33
:1055FC004802030008B5024B1B685B69019308BDA8
:10560C006402030008B5024B1B681B68019308BDBC
:10561C003C02030008B5024B1B68DB68019308BD14
:10562C003C02030008B5024B1B681B69019308BDC3
:10563C003C02030008B5024B1B685B69019308BD73
:10564C003C02030008B5024B1B689B69019308BD23
:10565C003C02030008B5024B1B68DB69019308BDD3
:10566C003C02030008B5024B1B681B6A019308BD82
:10567C003C02030008B5024B1B689B6A019308BDF2
:10568C003C02030008B5024B1B68DB68019308BDA4
:10569C002802030008B5024B1B689B69019308BDE7
:1056AC002802030008B5024B1B68DB69019308BD97
:1056BC002802030008B5024B1B681B6A019308BD46
:1056CC002802030008B5024B1B685B6A019308BDF6
:1056DC002802030008B5024B1B689B6A019308BDA6
:1056EC002802030008B5024B1B68DB6A019308BD56
:1056FC002802030008B5024B1B681B6B019308BD05
:10570C002802030008B5024B1B685B6B019308BDB4
:10571C002802030008B5024B1B681B6C019308BDE3
:10572C002802030008B5024B1B681B68019308BDD7
:10573C003002030008B5024B1B689B68019308BD3F
:10574C003002030008B5024B1B68DB68019308BDEF
:10575C003002030008B5024B1B681B69019308BD9E
:10576C003002030008B5024B1B685B69019308BD4E
:10577C003002030008B5024B1B68DB69019308BDBE
:10578C003002030008B5024B1B681B6A019308BD6D
:10579C003002030008B5024B1B685B6A019308BD1D
:1057AC003002030008B5024B1B681B6C019308BD4B
:1057BC003002030008B5024B1B685B6C019308BDFB
:1057CC003002030008B5024B1B681B68019308BD2F
:1057DC004C02030008B5024B1B685B68019308BDC3
:1057EC004C02030008B5024B1B681B69019308BDF2
:1057FC004C02030008B5024B1B685B69019308BDA2
:10580C004C02030008B5024B1B689B69019308BD51
:10581C004C02030008B5024B1B68DB69019308BD01
:10582C004C02030008B5024B1B681B6A019308BDB0
:10583C004C02030008B5024B1B689B68019308BD22
:10584C006002030008B5024B1B68DB68019308BDBE
:10585C006002030008B5024B1B689B69019308BDED
:10586C006002030008B5024B1B685B6B019308BD1B
:10587C006002030008B5024B1B681B6D019308BD49
:10588C006002030008B5024B1B685B68019308BDFE
:10589C002002030008B5024B1B685B69019308BD2D
:1058AC002002030008B5024B1B68DB6A019308BD9C
:1058BC002002030008B5034B1B68D3F88830019312
:1058CC0008BD00002002030008B5034B1B68D3F889
:1058DC009430019308BD00002002030008B5024B70
:1058EC001B685B68019308BD4002030008B5024BBE
:1058FC001B689B68019308BD4002030008B5024B6E
:10590C001B68DB68019308BD4002030008B5024B1D
:10591C001B681B69019308BD4002030008B5024BCC
:10592C001B685B69019308BD4002030008B5024B7C
:10593C001B689B69019308BD4002030008B5024B2C
:10594C001B68DB69019308BD4002030008B5024BDC
:10595C001B681B6A019308BD4002030008B5024B8B
:10596C001B681B6B019308BD4002030008B5024B7A
:10597C001B685B6B019308BD4002030008B5024B2A
:10598C001B681B6C019308BD4002030008B5024B59
:10599C001B685B6C019308BD4002030008B5024B09
:1059AC001B68DB6B019308BD4402030008B5024B76
:1059BC001B681B68019308BD1C02030008B5024B51
:1059CC001B685B68019308BD1C02030008B5024B01
:1059DC001B689B68019308BD1C02030008B5024BB1
:1059EC001B685B6A019308BD1C02030008B5024BDF
:1059FC001B68DB6A019308BD1C02030008B5024B4F
:105A0C001B685B6C019308BD1C02030000224068FC
:105A1C001146FFF79BBF002240681146FFF7A6BF57
:105A2C0040680022FFF79ABF4068002281F0010114
:105A3C00FFF784BF002340681A461946FFF776BF6C
:105A4C00002340681A461946FFF768BF00224068D9
:105A5C001146FFF75BBF002240681146FFF746BFB7
:105A6C00406800220221FFF749BF002340681A4614
:105A7C00FFF734BF024B03225A60024A1A60704788
:105A8C0044E603202C850D000021FFF78BBE00217E
:105A9C00FFF790BE10B5044608462170FFF76AFE6A
:105AAC0000236360204610BD10B504460078FFF754
:105ABC00EBFF48B920784FF6FF71FFF733FE2078E3
:105ACC00BDE81040FFF7E3BF10BD13B504460078E6
:105ADC000191FFF7D9FF019940B92078FFF72AFE11
:105AEC00207802B0BDE81040FFF7D1BF02B010BD66
:105AFC0013B5044600780191FFF7C6FF019940B930
:105B0C002078FFF71FFE207802B0BDE81040FFF7A9
:105B1C00BEBF02B010BD0000400830B518600024B4
:105B2C0018688842E5B206D90134082C02D0400826
:105B3C001860F5E70725024B5B5D137030BD00BFA5
:105B4C0060850D002DE9F04188B0002304460078F3
:105B5C0002930E461746FFF797FF054600BB94F8D5
:105B6C0000800146142203A802F076F80B232A4683
:105B7C0003A94046ADF80C30FFF70CFE04988DF8E5
:105B8C00075002AB0DF1070207FB06F1FFF7C4FF4C
:105B9C0020789DF80710FFF7DDFD2078FFF777FFE1
:105BAC00029808B0BDE8F08138B5044600780D467F
:105BBC00FFF76AFF0346D0B9616899B10C4A12F835
:105BCC00010B854202D00133082BF8D10133DBB233
:105BDC000122D9402046FFF7B5FF2078BDE83840B8
:105BEC00FFF755BF20782946FFF7B4FDF5E738BD20
:105BFC0060850D0008B50078FFF7B4FDC0B208BD94
:105C0C0010B5094B094C022200201A60084B206089
:105C1C00A080A071A360FFF735FE2046054A064917
:105C2C00BDE8104001F0B0BE58E603204CE603205E
:105C3C000000FFFFE4E50320C5400D0010B504464D
:105C4C000068FFF7BBFE204610BD10B50446006887
:105C5C0008B1FFF7B3FE0023C4E90133236010BD84
:105C6C0038B504460D4600680131FFF7AFFE10B1A0
:105C7C00C4E90005012038BD10B50368044623B102
:105C8C0043688B4201D3012010BD2046FFF7E8FF8B
:105C9C000028F9D0A368002BF5D122681370F2E725
:105CAC0037B50D46114601920446FFF7E5FF019A00
:105CBC0028B92046FFF7C9FF204603B030BDA260CB
:105CCC002946206801F0A0FF2268A3680021D15466
:105CDC00F2E7002313B5C0E9003304468360037375
:105CEC0041B10846019101F0EDFF019902462046B1
:105CFC00FFF7D6FF204602B010BD13B5044659B1CC
:105D0C000846019101F0DEFF019902462046FFF79B
:105D1C00C7FF204602B010BDFFF797FFF9E77047A9
:105D2C007047704770470000064B994210B500F160
:105D3C000C0405D0084601F035FE002808BF0024ED
:105D4C00204610BDB07F0D00064B994210B500F1F6
:105D5C000C0405D0084601F025FE002808BF0024DD
:105D6C00204610BDB07F0D00064B994210B500F1D6
:105D7C000C0405D0084601F015FE002808BF0024CD
:105D8C00204610BDB07F0D0010B56821044601F00F
:105D9C0000FE204610BD10B52821044601F0F9FD87
:105DAC00204610BD10B53021044601F0F2FD20460E
:105DBC0010BDFEF76CB9FEF76AB9FEF768B910B5FD
:105DCC00036804469B689847A368013BA3602BB902
:105DDC0023682046DB68BDE81040184710BD10B59D
:105DEC000446006808B1FFF7E5FB204610BD000033
:105DFC0010B5044B04461868FFF7E4FB012323702D
:105E0C0010BD00BF64E6032010B5044B04461868AF
:105E1C00FFF7E0FB0023237010BD00BF64E60320F6
:105E2C00F0B50025EC1C8C420DD86E1C445D875DD2
:105E3C00974205D12644B14205D31D60601CF0BDCC
:105E4C0001342544EEE70020F9E72DE9F347044639
:105E5C009DF828701E46894601AB90460A46016A99
:105E6C00FFF7DEFF256AB31C17BB08B35F193F1A97
:105E7C001F2F19D8DDF8049009F1020AA5EB0902CD
:105E8C00121A00EB090106EB0A0092B221442044DD
:105E9C0001F0C8FE731C04F809303246414604EB8D
:105EAC000A0001F0B1FE2762206A02B0BDE8F0875B
:105EBC002B441F2BF8D8731C6355A81C2544206257
:105ECC00324685F801904146204401F09DFE236A3C
:105EDC0033442362E8E70000024A00210A20FFF75E
:105EEC00C1BC00BF5D540D00022A38B5044607D072
:105EFC00032A11D0012A01D10B682360002038BD80
:105F0C0008200D68FEF7BFF803460028F5D095E889
:105F1C00030083E80300F0E700680028EED00821B6
:105F2C0001F037FDEAE730B40D4611461A46036816
:105F3C0009682868D3E90043A44630BC604710B513
:105F4C0004465830FEF758F904F14800BDE81040FB
:105F5C00FFF774BEA0F13003DAB2092A01D8184653
:105F6C007047A0F16103052B01D857387047A0F199
:105F7C004103052B94BF37384FF0FF30704710B5F5
:105F8C00002304460370FFF733FF204610BD10B505
:105F9C00037804460BB1FFF737FF204610BD82B0E3
:105FAC000346086849686A4603C26A4603CA186011
:105FBC001846596002B0704708B582798B799A42BD
:105FCC0006D1062201F012FEB0FA80F0400908BD9D
:105FDC000020FCE74FF0FF33036083800020704704
:105FEC00002108B5016041600246FFF7F3FF917193
:105FFC00104608BD01220261064A11680160516811
:10600C0041601189927A827200220181C0F80B20C2
:10601C00C2737047B0860D0010B50B69036101F1B6
:10602C001002034651F8044B43F8044B9142F9D14A
:10603C0010BD10B50B460446B1B1012A01F1100296
:10604C000AD1014653F8040B41F8040B9342F9D1E1
:10605C0001232361204610BD411E12F8010D01F8E9
:10606C00010F9A42F9D1F3E7102201F0F5FDF1E7A7
:10607C0038B5044615461A46FFF7DBFFA5812046C6
:10608C0038BD000008B5026922B98089003818BFF4
:10609C00012008BD0249102201F0A8FDF6E700BF5F
:1060AC00D0860D000069704738B50C4614220021CB
:1060BC00054601F0D1FD23693BB9627B2B74237B30
:1060CC0043EA02232B80284638BD01232B7404F1AC
:1060DC0010022B4654F8041B43F8041B9442F9D1CC
:1060EC00F1E7427B007B40EA02207047704708B51D
:1060FC0002690B699A4206D1102201F077FDB0FAC1
:10610C0080F0400908BD0020FCE7000001232DE9C8
:10611C00F3410361324B1A6802605A6842600025F1
:10612C001A899B7A028104468372C0F80B50C5739E
:10613C000E4621B32421304601F0CCFD042821D198
:10614C00ADF8045001AFB51C063615F8020CFFF77C
:10615C0001FFB0F1000810DB15F8010CFFF7FAFE97
:10616C0000280ADB023540EA0810AE4207F8010BA2
:10617C00EBD1BDF804305BBAA3810023236102B0DC
:10618C00BDE8F08110272421304601F0A3FDA84280
:10619C0006D827440023BC42F1D007F8013DFAE7AA
:1061AC00002FECD0705DFFF7D5FE030615D400016F
:1061BC00013F5FFA80F804F807802421304601F093
:1061CC0089FD0135A84208D9705DFFF7C3FE40B2C6
:1061DC000028A4BF40EA0800E0550135D3E700BF12
:1061EC00B0860D0013B504460191FFF703FF20465E
:1061FC000199FFF78BFF204602B010BD30B49DF81B
:10620C00085012B9006A30BC7047029530BCFFF7D9
:10621C001CBE1FB50446024600F11F01002302F804
:10622C00013B9142FBD123620093062201238DF89E
:10623C000F2019460DF10F022046FFF7DFFF204615
:10624C0004B010BD1FB50A46044614211046039233
:10625C0001F040FD002103460091039A09212046DC
:10626C00FFF7CCFF04B010BD73B50A460E4601AB68
:10627C00016A0446FFF7D4FD054678B10198226AFD
:10628C004119121A2144521B204401F0BDFC206A12
:10629C00401B206231462046FFF7E6FF02B070BD7E
:1062AC0038B54FF6FF730025044643800E2229466D
:1062BC0005700571063001F0CFFC04F11400FFF7F6
:1062CC0099FE04F12800FFF795FE044904F13C0007
:1062DC00FFF7FFFC6565204638BD00BF587E0D00FA
:1062EC0010B5D0E9063203EBC2029342184606D031
:1062FC00046824888C4203F10803F6D110BD0020F9
:10630C00FCE70000F0B5064685B01F460D46002997
:10631C0050D0002A4ED004682378F42A28BFF422E7
:10632C0043B32379980709D5A08903920023FFF77B
:10633C00D3F80028039A03DA05B0F0BD6FF07700AC
:10634C0034682379D90609D5012F07D0A0890023F9
:10635C00294605B0BDE8F040FFF7F0B89B06EBD539
:10636C00022FE9D0A0890023294605B0BDE8F040F2
:10637C00FFF7EEB860884FF6FF7188421CD0217988
:10638C004E0701D5012F04D10B0709D46FF077000C
:10639C00D2E7A189009313462A46FFF7B1F8CBE761
:1063AC00022FF3D00023A189009313462A46FFF74E
:1063BC009DF8C1E70248BFE76FF0D100BCE700BF12
:1063CC00F2FEFFFF2DE9F04100260660074628206B
:1063DC000C46FDF758FE051E05F10C080FD00123E5
:1063EC00C5E90133084B2B604046FFF703FE0FCC89
:1063FC002E6285F8246046460FC623683360C7E9D1
:10640C0000853846BDE8F08180860D0070B500250A
:10641C00056006463020FDF736FE044688B10123A0
:10642C00C0E90133094B03604FF6FF7383810E30D3
:10643C00FFF7D6FDC4E90655C4E90855C4E90A5569
:10644C00A57574600C343460304670BD9C860D00AC
:10645C0037B50D46044601A8FFF791FD2A6852F89E
:10646C00023F23605368636001A8FFF790FD20464C
:10647C0003B030BD30B5054687B00C4601A8FFF718
:10648C007EFD2A68236812881B889A420DD1294602
:10649C0002A8FFF7DDFF214604A8FFF7D9FF04A9E6
:1064AC0002A8FFF789FD044600B9002401A8FFF7F4
:1064BC006EFD204607B030BD10B504465420FDF7E4
:1064CC00E2FD014660B10023C0E90033C0E90233AC
:1064DC00C0E90433C0E906330362C362C363C36417
:1064EC00216019B9094A0A20FFF7BCF90020FEF710
:1064FC00BFFF20B1054A00210A20FFF7B3F921683C
:10650C0003480022FFF710F8204610BD5D540D0023
:10651C00A9680D0010B50B4C2378BFF35B8FDB071C
:10652C000ED42046FDF7C0FD50B10748FFF7C4FF5D
:10653C002046FDF7BEFD054A0549034801F024FA43
:10654C00014810BD5CE6032068E60320E4E5032067
:10655C0029670D0030B50368093B012B8DB004464B
:10656C000D4611D8FFF7D6FFA1880068FFF7B8FEDB
:10657C00034658B92022CDE904200B4A00920B495E
:10658C0004AA3220FFF776F90DB030BD6A6D002AEF
:10659C00FAD0D4E9032105F14C00CDE90312AC6D1E
:1065AC0004AA03A9A047EFE78F850D0068850D00AD
:1065BC0008B50020FEF75CFF00EAE07008BD084655
:1065CC0011B90A46FEF75CBF096A0022FAE707B563
:1065DC00084629B90A4603B05DF804EBFEF758BF2C
:1065EC0001210190FFF740FE01980022016AF2E7B9
:1065FC0038B504461546FFF7E2FF00280ADB2946AA
:10660C002046FFF7E4FF002804DBBDE838400020FB
:10661C00FEF746BF38BD000038B500230446836042
:10662C0008200D46FDF72FFD18B12B6803606B6831
:10663C004360034BE360034B2060A360204638BDEE
:10664C00335F0D00F55E0D000B68036013B15A68E3
:10665C0001325A60704710B551F8043B044640F8BB
:10666C00043BFFF7F1FF23680BB9FFF735FC20461D
:10667C0010BD10B551F8043B044640F8043BFFF73D
:10668C00E3FF204610BD10B551F8043B044640F81A
:10669C00043BFFF7D9FF204610BD10B50446006837
:1066AC0028B14368013B43600BB9FFF788FB2046D8
:1066BC0010BD10B504460430FFF7EFFF204610BDA7
:1066CC0070B5D0E90053044605EBC306AE4204D0C6
:1066DC00281DFFF7E2FF0835F8E72068FFF76EF991
:1066EC00204670BD70B5D0E90053044605EBC306D7
:1066FC00AE4204D0281DFFF7D0FF0835F8E720681C
:10670C00FFF75CF9204670BD10B504462430FFF746
:10671C00E9FF04F11800FFF7D3FF10BDF8B50468CA
:10672C00064624B304F14400FDF766FD04F1340081
:10673C00FDF762FD04F12400FDF75EFDD4E906537C
:10674C0005EBC307AF4204D0281DFFF7A6FF0835A1
:10675C00F8E7A069FFF732F904F10C00FFF7C2FF6C
:10676C002046FFF7ADFF5421204601F012F93046C8
:10677C00F8BD826810B50AB901F011F9BDE81040F6
:10678C00C36818478842F8B504460D46164614D916
:10679C00904213D2A2F10806751AA1F108072C44F5
:1067AC00B74218D01CB131462046FFF76CFF301DA4
:1067BC00FFF773FF083E083CF2E70CD0B5420AD055
:1067CC001CB129462046FFF75EFF281DFFF765FF29
:1067DC0008350834F2E7F8BD2DE9F041D0E9004363
:1067EC000546884604EBC307A74203D10026304672
:1067FC00BDE8F08141462046FFF73CFE064608B94D
:10680C000834F1E7002CF1D0201DFFF746FFD5E945
:10681C00003204F1080103EBC2022046FFF7B2FF7D
:10682C006B68013B6B60E2E7F7B504464668684667
:10683C00FFF729FFD4E901739F4212DB0137002FC8
:10684C0029DDF800FFF7B2F80546F0B1D4E90012E3
:10685C0001EBC202FFF796FF2068FFF7AFF8256047
:10686C00A7602368626803EBC60603EBC2023146DD
:10687C0006F10800FFF786FF1EB169463046FFF7A8
:10688C0002FF636801336360012501A8FFF705FF70
:10689C00284603B0F0BD0025DEE700002DE9F041ED
:1068AC0005468EB003A80C46FFF769FB2E68042E34
:1068BC006BD007D8032E28D003A8FFF768FB0EB0C7
:1068CC00BDE8F081A6F10C03032BF5D8A98920466D
:1068DC00FFF706FD07460028EED0E36C002BEBD04B
:1068EC001022002107A801F0B7F90D2E06978DF89C
:1068FC001C6040F092806B68099306230893236D0B
:10690C0006A904F144009847D6E704A8FFF77EFDDA
:10691C00049BAA891A806968049808310230FFF731
:10692C003EFB04A906A8FFF7AEFE06A904F1180069
:10693C00FFF77AFF054607A8FFF7AFFE2023069363
:10694C008DB93E4B3E49009332202B4606AA079543
:10695C00FEF790FF049B29461888FEF7A9FD05A8B1
:10696C00FFF79BFEA8E7374A0092002334490793B0
:10697C0006AA0120FEF77EFFE36A002BEFD004A9E4
:10698C0004F12400FFF7F5FEE9E7A9892046FFF79B
:10699C00A7FC064600288FD00568D5E906314FF6CE
:1069AC00FF722A8003EBC101994203D053F8080B04
:1069BC004280F9E7D5E9037307EBC308B84504D067
:1069CC00381DFFF76AFE0837F8E700232B61D5E97D
:1069DC00067307EBC308B84504D0381DFFF75DFEFE
:1069EC000837F8E70023EB61AB72E36B23B1314658
:1069FC0004F13400FFF7BDFE00232022CDE906236D
:106A0C00114A00920E4906AA0120FEF733FF3146C7
:106A1C0004F11800FFF7E0FE4EE70F2E7FF46FAF86
:106A2C006B6809932B7A03F00102C3F340038DF8D2
:106A3C0029308DF82820082360E700BFA7850D00BA
:106A4C0068850D00CD850D00EA850D0013B500237A
:106A5C000446D1E90002C1E90033236800932060A9
:106A6C006368626001A80193FFF717FE204602B02D
:106A7C0010BD13B50B460246D0E900016C4684E804
:106A8C00030093E8030082E8030094E8030083E822
:106A9C00030002B010BD38B505460C46FFF7E9FF00
:106AAC00AB68A268AA60A360EB68E268EA60E36086
:106ABC0038BD1FB500230446084669460293FFF70C
:106ACC00EAFF21466846FFF7E6FF6846FDF794FBB0
:106ADC00204604B010BD70B50E4688B00446019235
:106AEC001D46FFF7DDFB33780199237104F13C005F
:106AFC00FFF703F904F14C0685B10C9B029502A932
:106B0C0004A80393FFF788FD04A93046FFF7D1FFD3
:106B1C0004A8FDF771FB204608B070BD0695F3E79D
:106B2C002DE9F04786B007461D46682000238946AC
:106B3C0092460493FDF7A7FA061E06F10C081DD029
:106B4C0001233446C6E90133154B44F8203B9AF82F
:106B5C0000308DF80C30109B00934A460F9B03A914
:106B6C004046FFF7B8FF0FCD0FC42B680E9D236076
:106B7C000FCD06F134040FC42B68236004A93846EA
:106B8C00CDE90486FFF762FF05A8FFF786FD39689B
:106B9C0019B9044A0A20FEF765FE06B0BDE8F08775
:106BAC0064860D005D540D008842F8B504460D4610
:106BBC00164614D9904213D2A2F10806751AA1F107
:106BCC0008072C44B74218D01CB131462046FFF7B9
:106BDC0050FD301DFFF761FD083E083CF2E70CD07C
:106BEC00B5420AD01CB129462046FFF742FD281DAC
:106BFC00FFF753FD08350834F2E7F8BD70B50E1EEB
:106C0C00054611DDF000FEF7D1FE044658B1D5E97A
:106C1C00001201EBC202FFF7C7FF2868FEF7CEFE99
:106C2C002C60AE60012070BD0024F6E773B50446FD
:106C3C0045686846FFF71DFDD4E90113994210DA47
:106C4C002368626803EBC50503EBC202294605F114
:106C5C000800FFF7A9FF8DB9636801336360012653
:106C6C0006E001312046FFF7C9FF06460028E7D1B0
:106C7C0001A8FFF712FD304602B070BD69462846E8
:106C8C00FFF7F7FCE8E78842F8B504460D461646D0
:106C9C0014D9904213D2A2F10806751AA1F1080773
:106CAC002C44B74218D01CB131462046FFF7D3FC18
:106CBC00301DFFF7F2FC083E083CF2E70CD0B54261
:106CCC000AD01CB129462046FFF7C5FC281DFFF74A
:106CDC00E4FC08350834F2E7F8BD70B50E1E054625
:106CEC0011DDF000FEF762FE044658B1D5E9001242
:106CFC0001EBC202FFF7C7FF2868FEF75FFE2C60AE
:106D0C00AE60012070BD0024F6E773B504464568FB
:106D1C006846FFF7A0FCD4E90113994210DA236806
:106D2C00626803EBC50503EBC202294605F10800B6
:106D3C00FFF7A9FF8DB9636801336360012606E094
:106D4C0001312046FFF7C9FF06460028E7D101A80C
:106D5C00FFF7A3FC304602B070BD69462846FFF72A
:106D6C007AFCE8E72DE9F04F1746A1B080460AA857
:106D7C000E46FFF704F93C68237953B9394640466F
:106D8C00FFF769FC0AA8FFF702F9404621B0BDE8FD
:106D9C00F08F3368D3E9035305EBC303039304F17A
:106DAC00280A04F1140B039B9D4221D0D5F80090C6
:106DBC00584609F11401FFF79AF9B8B109F1280105
:106DCC005046FFF794F988B12368D9F80020534056
:106DDC0033F47F430AD12022CDE915235E4A009279
:106DEC0015AA5E493220FEF745FDC7E70835DAE7FC
:106DFC005046FFF747F960B95949012215A815AD5E
:106E0C00FFF717F90FCDD446ACE80F002B68CCF880
:106E1C0000303368D3E9005305EBC30B5D45A9463D
:106E2C0051466ED055F8080BFFF761F90028F5D0E4
:106E3C0004F1140A5046FFF725F988B9494B484923
:106E4C001A88013292B21A8015A8012315ADFFF7EA
:106E5C000FF90FCDD446ACE80F002B68CCF80030FE
:106E6C002822002116A800F0F7FE3F4B159351463F
:106E7C0004A8FFF719F904AB18AA0DF1200C186837
:106E8C005968154603C5083363452A46F7D1186877
:106E9C00286023798DF85830D9F800309B8AADF8EA
:106EAC007430E36B1793314B0022A11D15A8CDE96B
:106EBC001E34FEF72FFB00287FF460AF01232370F4
:106ECC00346839460C340DA8FFF7C5FB20460DA9D4
:106EDC00FFF71BFF04460EA8FFF7DFFB002C7FF427
:106EEC004DAF2023CDE90D34214B00930DAA234641
:106EFC0077E739464046FFF7AEFB0CA8FFF7CDFB12
:106F0C0040E70BA8FFF75EFA514615A8FFF7CCF83F
:106F1C000B9A0023143215A90120FEF7D3FA00288E
:106F2C00E7D135680BA90DA8FFF7A3FB28460DA9DF
:106F3C00FFF77CFE05460EA8FFF7AFFB002DD8D05F
:106F4C0032685368126803F10053013B0CA802EB42
:106F5C00C309FFF7A2FB6BE709860D0068850D00DE
:106F6C00C0860D0060E6032001002C0061650D0059
:106F7C0034860D0010B5064C002320462360FEF726
:106F8C0011FB2046034A0449BDE8104000F0FCBC4C
:106F9C0064E60320E4E50320EB5D0D00F8B506463E
:106FAC000D468F180024BD420CD0336815F8011B18
:106FBC009B6830469847031E01DB1C44F3E7002C0A
:106FCC0008BF1C462046F8BD13B50446084659B107
:106FDC00019100F077FE23680199DB680246204698
:106FEC0002B0BDE81040184702B010BD03689B68A2
:106FFC00184738B50D210546FFF7F8FF0A2104465E
:10700C002846FFF7F3FF204438BD30B58BB0002382
:10701C008DF82430012A98BF0A2209AC0D46B1FB29
:10702C00F2F101FB125303F0FF03092B94BF303331
:10703C003733DBB2AA4204F8013DEFD92146FFF702
:10704C00C3FF0BB030BD2DE9F04186B000AF054653
:10705C000E46381D142114463B60FEF7BFFC132866
:10706C000ED8391D2846FFF7AFFF04461EB128463F
:10707C00FFF7BFFF044420461837BD46BDE8F0813A
:10708C0000F1080323F00703E846ADEB030D22469D
:10709C00411C3B686846FEF7A1FC69462846FFF791
:1070AC0093FF0446C546E1E7002340681A4619469B
:1070BC00FEF734BC014B024A1A6070476CE60320A1
:1070CC00E0860D00024B1A68024B1A60704700BF35
:1070DC007CE5032070E603200021FEF7DBBB10B536
:1070EC000446FDF789F8204610BD10B50446FEF79E
:1070FC00B1FB844208D01CB1BDE81040FEF79ABB2E
:10710C00BDE81040FEF79EBB10BD00000348044ACA
:10711C0004490023836000F037BC00BF74E60320F1
:10712C00E4E50320EB700D00014B1860704700BFC5
:10713C0080E5032008B50B4B43B100F05BF9036805
:10714C001B699847002801DDAFF30080064B43B163
:10715C0000F0CEF903681B699847002801DDAFF3F6
:10716C00008008BD000000000000000008B5FFF71B
:10717C00E1FFFEF775F9014B186008BDD4E7032059
:10718C000248034A0349121A00F03EBD00F40320E2
:10719C0004F40320408A0D0007B5002300931A461F
:1071AC006FF07701FEF790FB03B05DF804FB000075
:1071BC0007B543880A2B08D0502B0BD1094B1B6801
:1071CC004BB103B05DF804EB1847FFF7E5FF03B0D4
:1071DC005DF804FB002300931A466FF07701FEF76D
:1071EC0073FBF4E788E6032038B5124C1248134DB4
:1071FC000021FEF703FC2368AB42114B0CBF0122AC
:10720C0000221A7002D0FFF7BBFF2560FEF710F9C1
:10721C00044600F029FD0B4B13B12046AFF3008060
:10722C0000210848FEF7BAFBBDE8384006480021AB
:10723C00FEF740BB00F4032035710D001E1C279A8D
:10724C0084E6032000000000BD710D00704710B5EE
:10725C001821044600F09DFB204610BDF0B5037DBF
:10726C00062B8DB00E4600F104074FF0000412D02F
:10727C0000F1080515F8011D0A223046FFF7C5FE7E
:10728C00AF42044419D0002CF4D02E213046FFF725
:10729C00ADFE0444EEE72F236A4639460A208DF8EA
:1072AC000040FEF7A7F9684600F00CFD3368024673
:1072BC00DB68694630469847044620460DB0F0BD61
:1072CC0010B5054B0446112240F8043B002100F098
:1072DC00C3FC204610BD00BF08870D000346074ABB
:1072EC0010B543F8042B01F1100251F8044B43F88C
:1072FC00044B9142F9D10A781A7010BD08870D0021
:10730C0010B59DF8084044EA032343EA024242EADE
:10731C00016104234160037510BD000013B5054BDA
:10732C000360CB7800938B784A780978FFF7E8FFF5
:10733C0002B010BD08870D0041747047704708B546
:10734C000021007CFEF75EFA40EAE07008BD08B54B
:10735C000121007CFEF756FA40EAE07008BD08B542
:10736C00007CFEF747FA20EAE07008BD08B5007C07
:10737C00FEF738FA20EAE07008BD13B50446007C2D
:10738C000191FEF737FA0028019901DC607C20B1ED
:10739C00207CFEF73FFA20EAE07002B010BD007CC2
:1073AC00FEF740BA10B51421044600F0F2FA20465C
:1073BC0010BD000010B54FF47A7304460846002146
:1073CC00C4E90113044B2360012320746374114638
:1073DC00FEF7F8F9204610BD1C870D00007C00223A
:1073EC00FEF7F8B910B514220446002100F034FC65
:1073FC00204610BD10B5104C88B003A8FFF7F2FF63
:10740C002178BFF35B8F11F0010111D1204601915E
:10741C00FCF74AFE019958B103AA0848FFF7CAFFC6
:10742C002046FCF746FE064A0649044800F0ACFA32
:10743C00024808B010BD00BF8CE6032090E6032084
:10744C00E4E5032049730D0070474174704708B59B
:10745C00007CFEF70FF920EAE07008BD08B5007C4F
:10746C00FEF7E0F820EAE07008BD08B5007CFEF7F6
:10747C00E9F840EAE07008BD08B5007CFEF7DAF8E0
:10748C0040EAE07008BD007CFEF7E4B837B5457CF7
:10749C0004462DB1207C03B0BDE83040FEF7BAB8ED
:1074AC00007C0191FEF7E6F800280199F2DC2846F1
:1074BC0003B030BD10B51421044600F06AFA204622
:1074CC0010BD000010B54FF0000C044608461146E4
:1074DC004FF47A72C4E901C2044A2260012220747A
:1074EC0062741A46FEF78EF8204610BD4C870D00CC
:1074FC0013B50E4C2178BFF35B8F11F0010112D143
:10750C0020460191FCF7D0FD019960B1084A094B66
:10751C000948FFF7D7FF2046FCF7CBFD074A08497F
:10752C00054800F031FA044802B010BDA4E603206F
:10753C00A8E603202CE70320B0E70320E4E50320B2
:10754C0055740D007047F8B5064615460C468F1855
:10755C00BC4206D0336814F8011B9B683046984730
:10756C00F6E72846F8BD007C0022FEF7A3B8007CA5
:10757C000021FEF7A7B8007C0021FEF7ABB8007C19
:10758C000021FEF7AFB8007C0021FEF7B3B810B5B0
:10759C001421044600F0FDF9204610BD10B54FF43F
:1075AC007A73044608460021C4E90113034B236097
:1075BC0020741146FEF7AEF8204610BD7C870D00F6
:1075CC000023007C1A461946FEF75CB8007C0022AA
:1075DC00FEF760B8C9B2FFF7F9BF007C0022FEF7D6
:1075EC0061B80121FFF7F9BF002240681146FEF790
:1075FC008DB9002240681146FEF7A8B900224068F8
:10760C001146FEF7B3B940680022FEF7A7B94068EF
:10761C00002281F00101FEF791B9002340681A465F
:10762C001946FEF783B9002240681146FEF75EB991
:10763C00406800220221FEF761B9002340681A4617
:10764C00FEF74CB9024B04225A60024A1A6070478A
:10765C00C4E70320A4870D00002340681A46FEF7F8
:10766C003DB9406800220221FEF748B9002240686B
:10767C001146FEF73BB9002240681146FEF746B9A9
:10768C00002340681A461946FEF748B900234068A3
:10769C001A461946FEF74AB940680021FEF76EB942
:1076AC0040680021FEF772B94068002281F00101A8
:1076BC00FEF744B940680022FEF750B9002240683A
:1076CC001146FEF753B9002240681146FEF73EB949
:1076DC002DE9F043002495B016460D460746FFF7FA
:1076EC00EFFD214618220EA8009400F0B5FA4023B5
:1076FC00CDE90C3421466B460CAA3046FDF768FEEA
:10770C00044600284CD1024601216868FEF7FEF8B9
:10771C000221804622466868FEF7F8F8009E8146F2
:10772C002146002E3CD000293AD17368022B03D09D
:10773C000A2B11D0F669F4E7B8F1000F0AD0716981
:10774C0006A8043107ADFFF7E9FD0FCD3C1D0FC4B2
:10775C002B6823704146EDE7B9F1000F01D1494682
:10776C00E8E77469102201A800F076FA06238DF878
:10777C00143001AD04F108031834186859682A460E
:10778C0003C20833A3421546F7D101A906A807ADD9
:10779C00FFF7A4FD0FCD3C1D0FC42B682370DEE753
:1077AC000098FDF70DFE384615B0BDE8F0830000DB
:1077BC00024B034A1A6000225A607047CCE7032040
:1077CC00E0870D00232813B502D9002002B010BDAC
:1077DC00A0F10B03022B1AD8174C2178BFF35B8F47
:1077EC0011F001010BD120460191FCF75DFC0199D0
:1077FC0028B11248FEF74EF92046FCF75AFC0F4B05
:10780C001878FDF7BFFF0028DFD10120DEE7012843
:10781C0009D800F091F80021007CFDF773FF80F08F
:10782C000100C0B2D2E709380128EED8FFF760FE9C
:10783C00007CFDF717FFF2E738E603203CE6032057
:10784C00232838B504460D460AD8FF2908D0FFF77F
:10785C00B9FF28B129462046BDE83840FDF7C8BD20
:10786C0038BD38B504460D46FDF7CAFDFF2810D0CB
:10787C00062804D84D2323FA00F0C30709D4204668
:10788C00FFF7A0FF28B129462046BDE83840FDF798
:10789C00BFBD38BD0D2810B504469CBF0E34A4B234
:1078AC002046FFF78FFF50B103212046FDF798FDCE
:1078BC00032804D12046BDE81040FDF7B1BD0020DF
:1078CC0010BD2DE9F04190461F46002406460D469A
:1078DC00B8F1000F13D147FA04F101F00101304661
:1078EC00FFF7BFFF01212846FFF7BBFF0134002142
:1078FC002846FFF7B6FF082CEAD1BDE8F081C4F1A9
:10790C00070147FA01F1E8E738B500232025438049
:10791C00142304460380856005610649284600F05F
:10792C003CF804496060284600F037F8E0602046D7
:10793C0038BD00BF14880D0030B50F4D2978BFF34A
:10794C005B8F11F0010487B013D12846FCF7ACFB18
:10795C0078B101A8FFF7D8FF01AA21460748FFF725
:10796C001DFE2846FCF7A5FB054A0649034800F016
:10797C000BF8024807B030BDD8E70320DCE7032042
:10798C00E4E5032051750D000B460146184600F046
:10799C001FB9FCF77CBBFCF776BBFCF776BB08B5D4
:1079AC00FEF724F8014900F0F9B800BF30880D004B
:1079BC007FB500241023CDE90234036800949E693E
:1079CC008DF8044015466B461268B0479DF804309C
:1079DC0003F00603062B03BF009B2B6001202046FF
:1079EC0004B070BD0098904214BF0120062070476F
:1079FC0010B5034B0360044600F0CDF8204610BDD3
:107A0C0070880D0010B50446FFF7F2FF20460821E0
:107A1C00FFF7BFFF204610BD2DE9F0411F46DDE901
:107A2C000834DDF8188098450646154607D10799A5
:107A3C0000F0B4F818B165710020BDE8F08139464A
:107A4C00304600F0ABF80028F6D00123C4F80080D3
:107A5C002571A371F0E738B515461C4600F09EF869
:107A6C0020B10823E36006232560237138BD73B56C
:107A7C0005460C4601921E4600F090F850B9032EB4
:107A8C0008D82368019A5B692946204602B0BDE8F4
:107A9C007040184702B070BD10B5034B036004462C
:107AAC00FFF7A6FF204610BDD0880D0010B5044688
:107ABC00FFF7F2FF20460C21FFF76BFF204610BDAD
:107ACC00F7B5089F974205460E4614460AD0A8689B
:107ADC0002680897156A31462246AC4603B0BDE8E9
:107AEC00F04060471946019300F058F8019B0028BC
:107AFC00EDD0062003B0F0BD2DE9F14F0D4619462F
:107B0C00DDE90A4BDDE90CA681461746984600F0E4
:107B1C0045F890B1002D3460377109DB61198A4545
:107B2C000CBF06210121B171002001B0BDE8F08F1E
:107B3C000235F9D10123B371F6E7544506D1594604
:107B4C00484600F02BF808B17771EDE7D9F808003A
:107B5C000368CDE90CA6CDE90A4BDC693A464346ED
:107B6C002946A44601B0BDE8F04F60472DE9F0412D
:107B7C0007460C4615461E46FFF76DFF48B9B86818
:107B8C0003689F692A4633462146BC46BDE8F0414E
:107B9C006047BDE8F081704700207047814208B50E
:107BAC000ED0406803782A2B0CD049680B782A2B0E
:107BBC0008BF013100F07CF8B0FA80F0400908BD34
:107BCC000120FCE70020FAE70A22002100F00AB9A4
:107BDC0010B5054C13462CB10A4601460220AFF3F2
:107BEC00008010BD2046FCE70000000030B50139D4
:107BFC000024A24201D1002005E0035D01340D5D9B
:107C0C00AB42F6D0581B30BD0A44914200F1FF3311
:107C1C0000D1704710B511F8014B03F8014F914298
:107C2C00F9D110BD884210B501EB020402D984428F
:107C3C00234607D8431EA14208D011F8012B03F8A4
:107C4C00012FF8E7024401468A4200D110BD13F817
:107C5C00014D02F8014DF7E702440346934200D16F
:107C6C00704703F8011BF9E738B50D4B1D68AB6B7A
:107C7C0004467BB91820FDF799FE0A4A0A4BA86303
:107C8C00C0E90023094B83600B238381012200236D
:107C9C00C0E90423AB6B00221C615A6138BD00BFE4
:107CAC0080E503200E33CDAB34126DE6ECDE05001F
:107CBC0010F8012B11F8013B012A28BF9A42F7D08A
:107CCC00D01A7047034613F8012B002AFBD1181A5F
:107CDC000138704710B5024601448A42134601D15F
:107CEC00181A10BD1C780132002CF6D1F8E70000F0
:107CFC002DE9F0473A4E86468C4660461CF8014BFF
:107D0C00A55D15F00805F8D12D2C33D19CF8004059
:107D1C004FF0010800F1020C002B5CD0102B0CD1A1
:107D2C00302C0AD19CF8000000F0DF0058284DD10F
:107D3C009CF8014010230CF1020C08F10047013FA4
:107D4C000026B7FBF3F9304603FB197AA4F1300592
:107D5C00092D18D82C46A34224DD751C07D081456B
:107D6C001DD301D1A2451ADB00FB034001261CF8F0
:107D7C00014BEBE72B2C08BF9CF80040A84608BF32
:107D8C0000F1020CC8E7A4F14105192D01D8373CCC
:107D9C00E1E7A4F16105192D04D8573CDBE74FF05E
:107DAC00FF36E4E7731C06D12223CEF800303846A8
:107DBC0042B9BDE8F087B8F1000F00D04042002A6C
:107DCC00F7D00EB10CF1FF311160F2E73024002B2B
:107DDC00B3D10823B1E7302CA4D00A23ADE700BF00
:107DEC000A890D0013460A46014602480068FFF74F
:107DFC007FBF00BF80E503201D400D0059400D00E2
:107E0C0081400D0085400D000000000025643A25DE
:107E1C00643A25640033376533663733382D33368F
:107E2C0037332D343165302D613563352D3637635D
:107E3C003564663233613934370074696D655F744B
:107E4C0068726561640025642025640A00676573A7
:107E5C00747572655F74687265616400383365644B
:107E6C00633362362D663837652D346563622D6158
:107E7C003764362D333234356230376136613439FC
:107E8C000037366163656231622D336237382D34C9
:107E9C006137632D383266372D61343934323031E5
:107EAC003664663965006461746500343439363380
:107EBC003231642D376663632D346164362D386539
:107ECC0035302D303332373132383035306635007D
:107EDC0034363636373333362D366162612D3439CC
:107EEC0064652D623837332D34373431323963378A
:107EFC00323134620067656E65726174696F6E0051
:107F0C0032613732626337352D333165332D34634B
:107F1C0063362D623130352D3234373239393432C3
:107F2C00396237620074797065003165646535318A
:107F3C0032362D623932302D346663342D38666416
:107F4C00372D3566353065623834356263340061FF
:107F5C00656334366363652D313364332D343232CB
:107F6C00332D383534302D3138316633326638663E
:107F7C0063656100676573747572650067656E3162
:107F8C00717761746368000000000000000000005D
:107F9C0085450D00D5450D0087450D00E3450D00C9
:107FAC00B5450D00000000000000000000000000BE
:107FBC0000000000E1440D004D450D0041530D0043
:107FCC00A96F0D00214C0D0059500D00B14A0D0048
:107FDC0045490D0015510D00B3510D00E9510D002F
:107FEC0005520D0000000000003E5B4F5B3E3E6BF7
:107FFC004F6B3E1C3E7C3E1C183C7E3C181C577D37
:10800C00571C1C5E7F5E1C00183C1800FFE7C3E782
:10801C00FF0018241800FFE7DBE7FF30483A060E94
:10802C002629792926407F050507407F05253F5ADB
:10803C003CE73C5A7F3E1C1C08081C1C3E7F14224B
:10804C007F22145F5F005F5F06097F017F006689F6
:10805C00956A606060606094A2FFA29408047E043C
:10806C000810207E201008082A1C08081C2A080862
:10807C001E101010100C1E0C1E0C30383E38300622
:10808C000E3E0E06000000000000005F000000071E
:10809C00000700147F147F14242A7F2A122313084C
:1080AC00646236495620500008070300001C224128
:1080BC00000041221C002A1C7F1C2A08083E0808CC
:1080CC00008070300008080808080000606000207C
:1080DC00100804023E5149453E00427F400072495F
:1080EC004949462141494D331814127F1027454503
:1080FC0045393C4A49493141211109073649494919
:10810C0036464949291E0000140000004034000086
:10811C0000081422411414141414004122140802EF
:10812C00015909063E415D594E7C1211127C7F4962
:10813C004949363E414141227F4141413E7F4949B7
:10814C0049417F090909013E414151737F080808E3
:10815C007F00417F41002040413F017F08142241B4
:10816C007F404040407F021C027F7F0408107F3E0E
:10817C004141413E7F090909063E4151215E7F097B
:10818C00192946264949493203017F01033F4040E2
:10819C00403F1F2040201F3F4038403F63140814CD
:1081AC006303047804036159494D43007F41414105
:1081BC000204081020004141417F040201020440E6
:1081CC0040404040000307080020545478407F286A
:1081DC004444383844444428384444287F38545460
:1081EC00541800087E090218A4A49C787F08040483
:1081FC007800447D40002040403D007F1028440022
:10820C0000417F40007C047804787C0804047838B2
:10821C0044444438FC1824241818242418FC7C08E2
:10822C00040408485454542404043F44243C40405F
:10823C00207C1C2040201C3C4030403C4428102812
:10824C00444C9090907C4464544C4400083641005B
:10825C000000770000004136080002010204023CD5
:10826C002623263C1EA1A161123A4040207A3854A4
:10827C00545559215555794121545478412155541F
:10828C00784020545579400C1E5272123955555570
:10829C0059395454545939555454580000457C415B
:1082AC000002457D420001457C40F0292429F0F074
:1082BC00282528F07C545545002054547C547C0AC5
:1082CC00097F4932494949323248484832324A4892
:1082DC0048303A4141217A3A42402078009DA0A092
:1082EC007D39444444393D4040403D3C24FF2424E6
:1082FC00487E4943662B2FFC2F2BFF0929F620C003
:10830C00887E090320545479410000447D41304853
:10831C00484A32384040227A007A0A0A727D0D1996
:10832C00317D2629292F28262929292630484D40F8
:10833C0020380808080808080808382F10C8ACBAF4
:10834C002F102834FA00007B000008142A14222273
:10835C00142A1408AA005500AAAA55AA55AA000066
:10836C0000FF00101010FF00141414FF001010FF79
:10837C0000FF1010F010F0141414FC001414F7008B
:10838C00FF0000FF00FF1414F404FC141417101F5A
:10839C0010101F101F1414141F00101010F00000E8
:1083AC0000001F101010101F10101010F010000003
:1083BC0000FF101010101010101010FF1000000013
:1083CC00FF140000FF00FF00001F10170000FC044A
:1083DC00F414141710171414F404F40000FF00F72D
:1083EC0014141414141414F700F714141417141090
:1083FC00101F101F141414F4141010F010F00000BF
:10840C001F101F0000001F14000000FC140000F0DF
:10841C0010F01010FF10FF141414FF141010101F84
:10842C0000000000F010FFFFFFFFFFF0F0F0F0F095
:10843C00FFFFFF0000000000FFFF0F0F0F0F0F38B2
:10844C00444438447C2A2A3E147E02020606027EEC
:10845C00027E0263554941633844443C04407E200B
:10846C001E2006027E020299A5E7A5991C2A492A1C
:10847C001C4C7201724C304A4D4D303048784830AB
:10848C00BC625A463D3E494949007E0101017E2AA3
:10849C002A2A2A2A44445F444440514A44404044D6
:1084AC004A51400000FF0103E080FF000008086B08
:1084BC006B083612362436060F090F060000181802
:1084CC000000001010003040FF0101001F01011ED0
:1084DC0000191D1712003C3C3C3C00000000000041
:1084EC000000000000000000000000000000000080
:1084FC0041530D00A96F0D00A1400D0059500D0006
:10850C007D510D0099510D0015510D00B3510D0009
:10851C00E9510D0005520D000000000000000000A4
:10852C00775A0D006D5A0D00635A0D00595A0D0003
:10853C004D5A0D00415A0D00A5760D00AD760D007B
:10854C00355A0D002D5A0D00235A0D00195A0D00E5
:10855C00DD760D0000081018202830387769726914
:10856C006E672E626C65005374617274206469735B
:10857C00636F766572696E67207365727669636581
:10858C00732E005065657220646576696365206999
:10859C0073206D697373696E6721004661696C6540
:1085AC006420746F20617070656E642070656572F4
:1085BC002043656E7472616C206465766963652E08
:1085CC0000436F6E6E656374656420627920436549
:1085DC006E7472616C206465766963652E00446903
:1085EC0073636F6E6E656374656420627920726567
:1085FC006D6F7465206465766963652E00447570D3
:10860C006C6963617465642063686172616374652D
:10861C007269737469632063616E6E6F7420626536
:10862C002061646465642E004661696C6564207425
:10863C006F20617070656E64206C6F63616C206379
:10864C00686172616374657269737469632E00008A
:10865C000000000000000000315D0D00955D0D0074
:10866C004B5F0D00BF5D0D00355D0D00000000007F
:10867C00000000002D5D0D00A35D0D002F5D0D00B1
:10868C00C35D0D00555D0D000000000000000000F2
:10869C002B5D0D00B15D0D0015670D00C75D0D0064
:1086AC00755D0D00FB349B5F8000008000100000A6
:1086BC00000000007BE327747BF815ACDD49A9139F
:1086CC00000072F5FB349B5F8000008000100000FE
:1086DC00000000006170700025592D256D2D25645A
:1086EC005425483A254D3A2553257A006173637415
:1086FC00696D6500000000000000000069720D004B
:10870C0059720D005B720D000000000000000000AB
:10871C0049730D00B1730D0087730D00A96F0D0027
:10872C0079730D004B730D005B730D00AB730D0073
:10873C006B730D0045730D0000000000000000007D
:10874C0055740D00C1740D0099740D00A96F0D00C6
:10875C0069740D0085740D0077740D0093740D0011
:10876C0057740D005B740D00000000000000000049
:10877C0051750D009B750D0073750D0053750D0033
:10878C007B750D0083750D008B750D0093750D00B9
:10879C00000000000000000047760D003D760D0043
:1087AC0033760D00F5750D00B5700D0027760D00B4
:1087BC00A5760D00AD760D001B760D0013760D0021
:1087CC0009760D00FF750D00DD760D000000000030
:1087DC000000000065760D006F760D0079760D00B7
:1087EC0083760D008D760D0099760D00A5760D0023
:1087FC00AD760D00B5760D00C1760D00C9760D0075
:10880C00D3760D00DD760D0000537431395F537053
:10881C005F6D616B655F7368617265645F746167DE
:10882C000000000070880D0015880D00D0880D0028
:10883C0044880D00F4880D004E31305F5F6378780A
:10884C00616269763131375F5F636C6173735F743A
:10885C007970655F696E666F45000000000000006E
:10886C0038880D00FD790D00117A0D00A57B0D00E7
:10887C00A57B0D007B7A0D00BD790D00637A0D0090
:10888C00257A0D00F1790D00D0880D00A0880D001F
:10889C0038880D004E31305F5F637878616269769D
:1088AC003132305F5F73695F636C6173735F7479CE
:1088BC0070655F696E666F45000000000000000087
:1088CC0094880D00A57A0D00B97A0D00A57B0D00DA
:1088DC00A57B0D007B7A0D00BD790D00797B0D0019
:1088EC00057B0D00CD7A0D0070880D00FC880D0005
:1088FC00537439747970655F696E666F000020205F
:10890C002020202020202028282828282020202033
:10891C0020202020202020202020202020208810F3
:10892C001010101010101010101010101010040453
:10893C00040404040404040410101010101010415A
:10894C0041414141410101010101010101010101CB
:10895C000101010101010101011010101010104260
:10896C00424242424202020202020202020202029B
:10897C000202020202020202021010101020000079
:10898C0000000000000000000000000000000000DB
:10899C0000000000000000000000000000000000CB
:1089AC0000000000000000000000000000000000BB
:1089BC0000000000000000000000000000000000AB
:1089CC00000000000000000000000000000000009B
:1089DC00000000000000000000000000000000008B
:1089EC00000000000000000000000000000000007B
:1089FC00000000000000000000000000000000006B
:108A0C00F9400D0079430D008D440D005D450D00BE
:108A1C00FD480D00815A0D000D5C0D00816F0D009D
:108A2C00C1700D00D1700D0019710D0051760D0043
:048A3C00BD770D00F5
:048A40000000000032
:108A4400000103070F1F3F7F0080C0E0F0F8FCFE29
:108A54000000000000000000000000000000000012
:108A64000000000000000000000000000000000002
:108A740000000000000000000000000000000000F2
:108A84000000000000000000000000000000008062
:108A940080800000000000000000000000000000D2
:108AA400008080C0C0000000000000000000000042
:108AB40000000000000000000000000000000000B2
:108AC40000000000000000000000000000000000A2
:108AD4000000000000000000000000000000000092
:108AE4000000000080C0E0F0F8FCF8E000000000A6
:108AF40000000000000000000000000000808080F2
:108B0400808000808000000000808080808000FFE2
:108B1400FFFF000000008080808000008080000053
:108B240080FFFF80800080800080808080008080C3
:108B34000000000000808000008C8E84000080F81B
:108B4400F8F88000000000000000000000000000B1
:108B5400F0F0F0F0F0F0F0F0F0F0F0F0E0E0C080D1
:108B640000E0FCFEFFFFFF7FFFFFFFFFFF000000B0
:108B74000000000000000000000000FEFFC701012B
:108B8400010183FFFF00007CFEC70101010183FF97
:108B9400FFFF0038FEC78301010183C7FFFF000008
:108BA40001FFFF010100FFFF0701010100007FFF3A
:108BB40080000000FFFF7F0000FFFFFF000001FFB7
:108BC400FFFF0100000000000000000000000000A2
:108BD400030F3F7F7FFFFFFFFFFFFFFFE7C7C78F45
:108BE4008F9FBFFFFFC3C0F0FFFFFFFFFFFCFCFC34
:108BF400FCFCFCFCFCF8F8F0F0E0C000010303030B
:108C04000303010303000000000103030303010144
:108C14000301000000010303030301010303000037
:108C24000003030000000303000000000000000133
:108C34000303030303010000000103010000000318
:108C4400030100000000000000000000000000001C
:108C540000000080C0E0F0F9FFFFFFFFFF3F1F0F9F
:108C640087C7F7FFFF1F1F3DFCF8F8F8F87C7DFF6E
:108C7400FFFFFFFFFFFFFF7F3F0F070030300000C3
:108C840000000000000000000000000000000000E0
:108C940000000000FEFEFC000000000000000000D8
:108CA40000000000000000000000000000E0C00020
:108CB4000000000000000000000030300000000050
:108CC40000000000000000000000000000000000A0
:108CD40000C0FEFFFFFFFFFFFFFFFFFF7F7F3F1F7F
:108CE4000F071F7FFFFFF8F8FFFFFFFFFFFEF8E00D
:108CF400000000010000000000000000FEFE000073
:108D040000FCFEFC0C06060EFCF80000F0F81C0E3D
:108D14000606060CFFFFFF0000FEFE00000000FC3C
:108D2400FEFC00183C7E66E6CE84000006FFFF06CB
:108D340006FCFEFC0C0606060000FEFE0000C0F861
:108D4400FC4E4646464E7C7840183C76E6CECC80B7
:108D5400000000000000000000000000000000000F
:108D64000000000001070F1F1F3F3F3F3F1F0F037D
:108D74000000000000000000000000000F0F0000D1
:108D8400000F0F0F000000000F0F000003070E0C70
:108D940018180C060F0F0F0000010F0E0C180C0F03
:108DA400070100040E0C180C0F070000000F0F0041
:108DB400000F0F0F0000000000000F0F000000075D
:108DC400070C0C181C0C060600040E0C180C0F07DC
:108DD400000000000000000000000000000000008F
:108DE400000000000000000000000000000000007F
:108DF400000000000000000000000000000000006F
:108E0400000000000000000000000000000000005E
:108E1400000000000000000000000000000000004E
:108E2400000000000000000000000000000000003E
:108E3400000000000000000000000000000000002E
:108E4400000000000000000000000000000000001E
:108E5400F8860D0084E503200000000000000000F7
:108E640000000000000000000000000000000000FE
:108E740000000000000000000000000000000000EE
:108E840000000000000000000000000000000000DE
:108E940000000000000000000000000000000000CE
:108EA40000000000000000000000000000000000BE
:088EB4000000000000000000B6
:108EBC00FFFFFFFF00000102030405060708090A73
:108ECC000B0C0D0E0F101112131415161718191A6E
:088EDC001B1C1D1E1F202800B5
:048EE4007856341276
:04000003D000401CCD
:00000001FF
